{
  "contractName": "Claim",
  "abi": [
    {
      "constant": true,
      "inputs": [
        {
          "internalType": "uint256",
          "name": "",
          "type": "uint256"
        }
      ],
      "name": "bcnBorn",
      "outputs": [
        {
          "internalType": "address",
          "name": "",
          "type": "address"
        }
      ],
      "payable": false,
      "stateMutability": "view",
      "type": "function"
    },
    {
      "constant": true,
      "inputs": [
        {
          "internalType": "uint256",
          "name": "",
          "type": "uint256"
        }
      ],
      "name": "espluguesResident",
      "outputs": [
        {
          "internalType": "address",
          "name": "",
          "type": "address"
        }
      ],
      "payable": false,
      "stateMutability": "view",
      "type": "function"
    },
    {
      "constant": true,
      "inputs": [
        {
          "internalType": "uint256",
          "name": "",
          "type": "uint256"
        }
      ],
      "name": "informaticsEngineer",
      "outputs": [
        {
          "internalType": "address",
          "name": "",
          "type": "address"
        }
      ],
      "payable": false,
      "stateMutability": "view",
      "type": "function"
    },
    {
      "constant": true,
      "inputs": [
        {
          "internalType": "uint256",
          "name": "",
          "type": "uint256"
        }
      ],
      "name": "over18",
      "outputs": [
        {
          "internalType": "address",
          "name": "",
          "type": "address"
        }
      ],
      "payable": false,
      "stateMutability": "view",
      "type": "function"
    },
    {
      "constant": false,
      "inputs": [
        {
          "internalType": "uint256",
          "name": "claimId",
          "type": "uint256"
        },
        {
          "internalType": "string",
          "name": "claimName",
          "type": "string"
        },
        {
          "internalType": "string",
          "name": "claimValidity",
          "type": "string"
        },
        {
          "internalType": "string",
          "name": "claimFormat",
          "type": "string"
        },
        {
          "internalType": "bytes32",
          "name": "claimSignature",
          "type": "bytes32"
        }
      ],
      "name": "claim",
      "outputs": [
        {
          "internalType": "uint256",
          "name": "",
          "type": "uint256"
        }
      ],
      "payable": false,
      "stateMutability": "nonpayable",
      "type": "function"
    },
    {
      "constant": true,
      "inputs": [],
      "name": "getOver18Claimers",
      "outputs": [
        {
          "internalType": "address[]",
          "name": "",
          "type": "address[]"
        }
      ],
      "payable": false,
      "stateMutability": "view",
      "type": "function"
    },
    {
      "constant": true,
      "inputs": [],
      "name": "getBcnBornClaimers",
      "outputs": [
        {
          "internalType": "address[]",
          "name": "",
          "type": "address[]"
        }
      ],
      "payable": false,
      "stateMutability": "view",
      "type": "function"
    },
    {
      "constant": true,
      "inputs": [],
      "name": "getEspluguesResidentClaimers",
      "outputs": [
        {
          "internalType": "address[]",
          "name": "",
          "type": "address[]"
        }
      ],
      "payable": false,
      "stateMutability": "view",
      "type": "function"
    },
    {
      "constant": true,
      "inputs": [],
      "name": "getInformaticsEngineerClaimers",
      "outputs": [
        {
          "internalType": "address[]",
          "name": "",
          "type": "address[]"
        }
      ],
      "payable": false,
      "stateMutability": "view",
      "type": "function"
    }
  ],
  "bytecode": "0x608060405234801561001057600080fd5b506112b9806100206000396000f3fe608060405234801561001057600080fd5b50600436106100935760003560e01c80634e8de41c116100665780634e8de41c146103e4578063980d47dc14610452578063c58270d5146104b1578063c6ef63c714610510578063e637092b1461056f57610093565b806313065c51146100985780631bf76377146102a95780631f023a2c146103175780633668352514610376575b600080fd5b610293600480360360a08110156100ae57600080fd5b8101908080359060200190929190803590602001906401000000008111156100d557600080fd5b8201836020820111156100e757600080fd5b8035906020019184600183028401116401000000008311171561010957600080fd5b91908080601f016020809104026020016040519081016040528093929190818152602001838380828437600081840152601f19601f8201169050808301925050505050505091929192908035906020019064010000000081111561016c57600080fd5b82018360208201111561017e57600080fd5b803590602001918460018302840111640100000000831117156101a057600080fd5b91908080601f016020809104026020016040519081016040528093929190818152602001838380828437600081840152601f19601f8201169050808301925050505050505091929192908035906020019064010000000081111561020357600080fd5b82018360208201111561021557600080fd5b8035906020019184600183028401116401000000008311171561023757600080fd5b91908080601f016020809104026020016040519081016040528093929190818152602001838380828437600081840152601f19601f820116905080830192505050505050509192919290803590602001909291905050506105dd565b6040518082815260200191505060405180910390f35b6102d5600480360360208110156102bf57600080fd5b8101908080359060200190929190505050610f38565b604051808273ffffffffffffffffffffffffffffffffffffffff1673ffffffffffffffffffffffffffffffffffffffff16815260200191505060405180910390f35b61031f610f74565b6040518080602001828103825283818151815260200191508051906020019060200280838360005b83811015610362578082015181840152602081019050610347565b505050509050019250505060405180910390f35b6103a26004803603602081101561038c57600080fd5b8101908080359060200190929190505050611002565b604051808273ffffffffffffffffffffffffffffffffffffffff1673ffffffffffffffffffffffffffffffffffffffff16815260200191505060405180910390f35b610410600480360360208110156103fa57600080fd5b810190808035906020019092919050505061103e565b604051808273ffffffffffffffffffffffffffffffffffffffff1673ffffffffffffffffffffffffffffffffffffffff16815260200191505060405180910390f35b61045a61107a565b6040518080602001828103825283818151815260200191508051906020019060200280838360005b8381101561049d578082015181840152602081019050610482565b505050509050019250505060405180910390f35b6104b9611108565b6040518080602001828103825283818151815260200191508051906020019060200280838360005b838110156104fc5780820151818401526020810190506104e1565b505050509050019250505060405180910390f35b610518611196565b6040518080602001828103825283818151815260200191508051906020019060200280838360005b8381101561055b578082015181840152602081019050610540565b505050509050019250505060405180910390f35b61059b6004803603602081101561058557600080fd5b8101908080359060200190929190505050611224565b604051808273ffffffffffffffffffffffffffffffffffffffff1673ffffffffffffffffffffffffffffffffffffffff16815260200191505060405180910390f35b60008086101580156105f0575060048611155b6105f957600080fd5b6040518060400160405280600181526020017f3000000000000000000000000000000000000000000000000000000000000000815250805190602001208480519060200120141561064957600080fd5b60405160200180807f6f7665722d313800000000000000000000000000000000000000000000000000815250600701905060405160208183030381529060405280519060200120856040516020018082805190602001908083835b602083106106c757805182526020820191506020810190506020830392506106a4565b6001836020036101000a0380198251168184511680821785525050505050509050019150506040516020818303038152906040528051906020012014156107f0576000600260405180807f43756572706f204e6163696f6e616c20646520506f6c69636961000000000000815250601a019050602060405180830381855afa158015610757573d6000803e3d6000fd5b5050506040513d602081101561076c57600080fd5b81019080805190602001909291905050509050808314156107ee5760003390806001815401808255809150509060018203906000526020600020016000909192909190916101000a81548173ffffffffffffffffffffffffffffffffffffffff021916908373ffffffffffffffffffffffffffffffffffffffff160217905550505b505b6001861480156108b6575060405160200180807f62697274682d706c616365000000000000000000000000000000000000000000815250600b01905060405160208183030381529060405280519060200120856040516020018082805190602001908083835b602083106108795780518252602082019150602081019050602083039250610856565b6001836020036101000a03801982511681845116808217855250505050505090500191505060405160208183030381529060405280519060200120145b15610a635760405160200180807f62617263656c6f6e610000000000000000000000000000000000000000000000815250600901905060405160208183030381529060405280519060200120836040516020018082805190602001908083835b602083106109395780518252602082019150602081019050602083039250610916565b6001836020036101000a038019825116818451168082178552505050505050905001915050604051602081830303815290604052805190602001201415610a62576000600260405180807f416a756e74616d656e742064652042617263656c6f6e610000000000000000008152506017019050602060405180830381855afa1580156109c9573d6000803e3d6000fd5b5050506040513d60208110156109de57600080fd5b8101908080519060200190929190505050905080831415610a605760013390806001815401808255809150509060018203906000526020600020016000909192909190916101000a81548173ffffffffffffffffffffffffffffffffffffffff021916908373ffffffffffffffffffffffffffffffffffffffff160217905550505b505b5b600286148015610b29575060405160200180807f7265736964656e63652d706c6163650000000000000000000000000000000000815250600f01905060405160208183030381529060405280519060200120856040516020018082805190602001908083835b60208310610aec5780518252602082019150602081019050602083039250610ac9565b6001836020036101000a03801982511681845116808217855250505050505090500191505060405160208183030381529060405280519060200120145b15610cd65760405160200180807f6573706c75677565730000000000000000000000000000000000000000000000815250600901905060405160208183030381529060405280519060200120836040516020018082805190602001908083835b60208310610bac5780518252602082019150602081019050602083039250610b89565b6001836020036101000a038019825116818451168082178552505050505050905001915050604051602081830303815290604052805190602001201415610cd5576000600260405180807f416a756e74616d656e742064274573706c7567756573000000000000000000008152506016019050602060405180830381855afa158015610c3c573d6000803e3d6000fd5b5050506040513d6020811015610c5157600080fd5b8101908080519060200190929190505050905080831415610cd35760023390806001815401808255809150509060018203906000526020600020016000909192909190916101000a81548173ffffffffffffffffffffffffffffffffffffffff021916908373ffffffffffffffffffffffffffffffffffffffff160217905550505b505b5b600386148015610d9c575060405160200180807f756e69766572736974792d646567726565000000000000000000000000000000815250601101905060405160208183030381529060405280519060200120856040516020018082805190602001908083835b60208310610d5f5780518252602082019150602081019050602083039250610d3c565b6001836020036101000a03801982511681845116808217855250505050505090500191505060405160208183030381529060405280519060200120145b15610f2c5760405160200180807f496e666f726d617469637320456e67696e656572696e67000000000000000000815250601701905060405160208183030381529060405280519060200120836040516020018082805190602001908083835b60208310610e1f5780518252602082019150602081019050602083039250610dfc565b6001836020036101000a038019825116818451168082178552505050505050905001915050604051602081830303815290604052805190602001201415610f2b57600060026040518080611261602491396024019050602060405180830381855afa158015610e92573d6000803e3d6000fd5b5050506040513d6020811015610ea757600080fd5b8101908080519060200190929190505050905080831415610f295760033390806001815401808255809150509060018203906000526020600020016000909192909190916101000a81548173ffffffffffffffffffffffffffffffffffffffff021916908373ffffffffffffffffffffffffffffffffffffffff160217905550505b505b5b85905095945050505050565b60008181548110610f4557fe5b906000526020600020016000915054906101000a900473ffffffffffffffffffffffffffffffffffffffff1681565b60606003805480602002602001604051908101604052809291908181526020018280548015610ff857602002820191906000526020600020905b8160009054906101000a900473ffffffffffffffffffffffffffffffffffffffff1673ffffffffffffffffffffffffffffffffffffffff1681526020019060010190808311610fae575b5050505050905090565b6003818154811061100f57fe5b906000526020600020016000915054906101000a900473ffffffffffffffffffffffffffffffffffffffff1681565b6001818154811061104b57fe5b906000526020600020016000915054906101000a900473ffffffffffffffffffffffffffffffffffffffff1681565b606060028054806020026020016040519081016040528092919081815260200182805480156110fe57602002820191906000526020600020905b8160009054906101000a900473ffffffffffffffffffffffffffffffffffffffff1673ffffffffffffffffffffffffffffffffffffffff16815260200190600101908083116110b4575b5050505050905090565b6060600080548060200260200160405190810160405280929190818152602001828054801561118c57602002820191906000526020600020905b8160009054906101000a900473ffffffffffffffffffffffffffffffffffffffff1673ffffffffffffffffffffffffffffffffffffffff1681526020019060010190808311611142575b5050505050905090565b6060600180548060200260200160405190810160405280929190818152602001828054801561121a57602002820191906000526020600020905b8160009054906101000a900473ffffffffffffffffffffffffffffffffffffffff1673ffffffffffffffffffffffffffffffffffffffff16815260200190600101908083116111d0575b5050505050905090565b6002818154811061123157fe5b906000526020600020016000915054906101000a900473ffffffffffffffffffffffffffffffffffffffff168156fe556e69766572736974617420506f6c697465636e69636120646520436174616c756e7961a265627a7a723158202a32a85c7dc1678de7bd186124e9c74c8da3eafff5654184866b4252af9da89364736f6c63430005100032",
  "source": "pragma solidity ^0.5.10;\n\ncontract Claim {\n    address[] public over18;\n    address[] public bcnBorn;\n    address[] public espluguesResident;\n    address[] public informaticsEngineer;\n\n    // Making a claim\n    function claim(uint claimId, string memory claimName, string memory claimValidity, string memory claimFormat, bytes32 claimSignature) public returns (uint256) {\n    require(claimId >= 0 && claimId <= 4);\n    require(keccak256(bytes(claimValidity)) != keccak256(bytes(\"0\")));\n    if (keccak256(abi.encodePacked(((claimName)))) == keccak256(abi.encodePacked(((\"over-18\"))))) {\n        bytes32 hash = sha256(\"Cuerpo Nacional de Policia\");\n        if (claimSignature == hash) over18.push(msg.sender);\n    }\n    if (claimId == 1 && keccak256(abi.encodePacked(((claimName)))) == keccak256(abi.encodePacked(((\"birth-place\"))))) {\n        if (keccak256(abi.encodePacked(((claimFormat)))) == keccak256(abi.encodePacked(((\"barcelona\"))))) {\n            bytes32 hash = sha256(\"Ajuntament de Barcelona\");\n            if (claimSignature == hash) bcnBorn.push(msg.sender);\n        }\n    }\n    if (claimId == 2 && keccak256(abi.encodePacked(((claimName)))) == keccak256(abi.encodePacked(((\"residence-place\"))))) {\n        if (keccak256(abi.encodePacked(((claimFormat)))) == keccak256(abi.encodePacked(((\"esplugues\"))))) {\n            bytes32 hash = sha256(\"Ajuntament d'Esplugues\");\n            if (claimSignature == hash) espluguesResident.push(msg.sender);\n        }\n    }\n    if (claimId == 3 && keccak256(abi.encodePacked(((claimName)))) == keccak256(abi.encodePacked(((\"university-degree\"))))) {\n        if (keccak256(abi.encodePacked(((claimFormat)))) == keccak256(abi.encodePacked(((\"Informatics Engineering\"))))) {\n            bytes32 hash = sha256(\"Universitat Politecnica de Catalunya\");\n            if (claimSignature == hash) informaticsEngineer.push(msg.sender);\n        }\n    }\n    return claimId;\n    }\n    \n    // Retrieving people over 18\n    function getOver18Claimers() public view returns (address[] memory) {\n    return over18;\n    }\n\n    // Retrieving people born in Barcelona\n    function getBcnBornClaimers() public view returns (address[] memory) {\n    return bcnBorn;\n    }\n\n    // Retrieving people resident of Esplugues\n    function getEspluguesResidentClaimers() public view returns (address[] memory) {\n    return espluguesResident;\n    }\n\n    // Retrieving people with an Informatics Engineering degree\n    function getInformaticsEngineerClaimers() public view returns (address[] memory) {\n    return informaticsEngineer;\n    }\n\n}",
  "sourcePath": "/home/abernalmac/Documents/pti/contracts/Claim.sol",
  "compiler": {
    "name": "solc",
    "version": "0.5.16+commit.9c3226ce.Emscripten.clang"
  },
  "schemaVersion": "3.4.3",
  "updatedAt": "2021-11-16T17:53:00.899Z",
  "networkType": "ethereum",
  "devdoc": {
    "methods": {}
  },
  "userdoc": {
    "methods": {}
  }
}