{
  "contractName": "Claim",
  "abi": [
    {
      "constant": true,
      "inputs": [
        {
          "internalType": "uint256",
          "name": "",
          "type": "uint256"
        }
      ],
      "name": "bcnBorn",
      "outputs": [
        {
          "internalType": "address",
          "name": "",
          "type": "address"
        }
      ],
      "payable": false,
      "stateMutability": "view",
      "type": "function"
    },
    {
      "constant": true,
      "inputs": [
        {
          "internalType": "uint256",
          "name": "",
          "type": "uint256"
        }
      ],
      "name": "espluguesResident",
      "outputs": [
        {
          "internalType": "address",
          "name": "",
          "type": "address"
        }
      ],
      "payable": false,
      "stateMutability": "view",
      "type": "function"
    },
    {
      "constant": true,
      "inputs": [
        {
          "internalType": "uint256",
          "name": "",
          "type": "uint256"
        }
      ],
      "name": "informaticsEngineer",
      "outputs": [
        {
          "internalType": "address",
          "name": "",
          "type": "address"
        }
      ],
      "payable": false,
      "stateMutability": "view",
      "type": "function"
    },
    {
      "constant": true,
      "inputs": [
        {
          "internalType": "uint256",
          "name": "",
          "type": "uint256"
        }
      ],
      "name": "over18",
      "outputs": [
        {
          "internalType": "address",
          "name": "",
          "type": "address"
        }
      ],
      "payable": false,
      "stateMutability": "view",
      "type": "function"
    },
    {
      "constant": false,
      "inputs": [
        {
          "internalType": "uint256",
          "name": "claimId",
          "type": "uint256"
        },
        {
          "internalType": "string",
          "name": "claimName",
          "type": "string"
        },
        {
          "internalType": "string",
          "name": "claimValidity",
          "type": "string"
        },
        {
          "internalType": "string",
          "name": "claimFormat",
          "type": "string"
        }
      ],
      "name": "claim",
      "outputs": [
        {
          "internalType": "uint256",
          "name": "",
          "type": "uint256"
        }
      ],
      "payable": false,
      "stateMutability": "nonpayable",
      "type": "function"
    },
    {
      "constant": true,
      "inputs": [],
      "name": "getOver18Claimers",
      "outputs": [
        {
          "internalType": "address[]",
          "name": "",
          "type": "address[]"
        }
      ],
      "payable": false,
      "stateMutability": "view",
      "type": "function"
    },
    {
      "constant": true,
      "inputs": [],
      "name": "getBcnBornClaimers",
      "outputs": [
        {
          "internalType": "address[]",
          "name": "",
          "type": "address[]"
        }
      ],
      "payable": false,
      "stateMutability": "view",
      "type": "function"
    },
    {
      "constant": true,
      "inputs": [],
      "name": "getEspluguesResidentClaimers",
      "outputs": [
        {
          "internalType": "address[]",
          "name": "",
          "type": "address[]"
        }
      ],
      "payable": false,
      "stateMutability": "view",
      "type": "function"
    },
    {
      "constant": true,
      "inputs": [],
      "name": "getInformaticsEngineerClaimers",
      "outputs": [
        {
          "internalType": "address[]",
          "name": "",
          "type": "address[]"
        }
      ],
      "payable": false,
      "stateMutability": "view",
      "type": "function"
    }
  ],
  "bytecode": "0x608060405234801561001057600080fd5b50610d62806100206000396000f3fe608060405234801561001057600080fd5b50600436106100935760003560e01c80634e8de41c116100665780634e8de41c146103da578063980d47dc14610448578063c58270d5146104a7578063c6ef63c714610506578063e637092b1461056557610093565b80631bf76377146100985780631f023a2c14610106578063366835251461016557806347edb914146101d3575b600080fd5b6100c4600480360360208110156100ae57600080fd5b81019080803590602001909291905050506105d3565b604051808273ffffffffffffffffffffffffffffffffffffffff1673ffffffffffffffffffffffffffffffffffffffff16815260200191505060405180910390f35b61010e61060f565b6040518080602001828103825283818151815260200191508051906020019060200280838360005b83811015610151578082015181840152602081019050610136565b505050509050019250505060405180910390f35b6101916004803603602081101561017b57600080fd5b810190808035906020019092919050505061069d565b604051808273ffffffffffffffffffffffffffffffffffffffff1673ffffffffffffffffffffffffffffffffffffffff16815260200191505060405180910390f35b6103c4600480360360808110156101e957600080fd5b81019080803590602001909291908035906020019064010000000081111561021057600080fd5b82018360208201111561022257600080fd5b8035906020019184600183028401116401000000008311171561024457600080fd5b91908080601f016020809104026020016040519081016040528093929190818152602001838380828437600081840152601f19601f820116905080830192505050505050509192919290803590602001906401000000008111156102a757600080fd5b8201836020820111156102b957600080fd5b803590602001918460018302840111640100000000831117156102db57600080fd5b91908080601f016020809104026020016040519081016040528093929190818152602001838380828437600081840152601f19601f8201169050808301925050505050505091929192908035906020019064010000000081111561033e57600080fd5b82018360208201111561035057600080fd5b8035906020019184600183028401116401000000008311171561037257600080fd5b91908080601f016020809104026020016040519081016040528093929190818152602001838380828437600081840152601f19601f8201169050808301925050505050505091929192905050506106d9565b6040518082815260200191505060405180910390f35b610406600480360360208110156103f057600080fd5b8101908080359060200190929190505050610b0b565b604051808273ffffffffffffffffffffffffffffffffffffffff1673ffffffffffffffffffffffffffffffffffffffff16815260200191505060405180910390f35b610450610b47565b6040518080602001828103825283818151815260200191508051906020019060200280838360005b83811015610493578082015181840152602081019050610478565b505050509050019250505060405180910390f35b6104af610bd5565b6040518080602001828103825283818151815260200191508051906020019060200280838360005b838110156104f25780820151818401526020810190506104d7565b505050509050019250505060405180910390f35b61050e610c63565b6040518080602001828103825283818151815260200191508051906020019060200280838360005b83811015610551578082015181840152602081019050610536565b505050509050019250505060405180910390f35b6105916004803603602081101561057b57600080fd5b8101908080359060200190929190505050610cf1565b604051808273ffffffffffffffffffffffffffffffffffffffff1673ffffffffffffffffffffffffffffffffffffffff16815260200191505060405180910390f35b600081815481106105e057fe5b906000526020600020016000915054906101000a900473ffffffffffffffffffffffffffffffffffffffff1681565b6060600380548060200260200160405190810160405280929190818152602001828054801561069357602002820191906000526020600020905b8160009054906101000a900473ffffffffffffffffffffffffffffffffffffffff1673ffffffffffffffffffffffffffffffffffffffff1681526020019060010190808311610649575b5050505050905090565b600381815481106106aa57fe5b906000526020600020016000915054906101000a900473ffffffffffffffffffffffffffffffffffffffff1681565b60008085101580156106ec575060048511155b6106f557600080fd5b6040518060400160405280600181526020017f3000000000000000000000000000000000000000000000000000000000000000815250805190602001208380519060200120141561074557600080fd5b6040518060400160405280600781526020017f6f7665722d31380000000000000000000000000000000000000000000000000081525080519060200120848051906020012014156107fb5760003390806001815401808255809150509060018203906000526020600020016000909192909190916101000a81548173ffffffffffffffffffffffffffffffffffffffff021916908373ffffffffffffffffffffffffffffffffffffffff16021790555050610b00565b6040518060400160405280600b81526020017f62697274682d706c61636500000000000000000000000000000000000000000081525080519060200120848051906020012014156108fd576040518060400160405280600981526020017f62617263656c6f6e61000000000000000000000000000000000000000000000081525080519060200120828051906020012014156108f85760013390806001815401808255809150509060018203906000526020600020016000909192909190916101000a81548173ffffffffffffffffffffffffffffffffffffffff021916908373ffffffffffffffffffffffffffffffffffffffff160217905550505b610aff565b6040518060400160405280600f81526020017f7265736964656e63652d706c616365000000000000000000000000000000000081525080519060200120848051906020012014156109ff576040518060400160405280600981526020017f6573706c7567756573000000000000000000000000000000000000000000000081525080519060200120828051906020012014156109fa5760023390806001815401808255809150509060018203906000526020600020016000909192909190916101000a81548173ffffffffffffffffffffffffffffffffffffffff021916908373ffffffffffffffffffffffffffffffffffffffff160217905550505b610afe565b6040518060400160405280601181526020017f756e69766572736974792d6465677265650000000000000000000000000000008152508051906020012084805190602001201415610afd576040518060400160405280601781526020017f496e666f726d617469637320456e67696e656572696e670000000000000000008152508051906020012082805190602001201415610afc5760033390806001815401808255809150509060018203906000526020600020016000909192909190916101000a81548173ffffffffffffffffffffffffffffffffffffffff021916908373ffffffffffffffffffffffffffffffffffffffff160217905550505b5b5b5b5b849050949350505050565b60018181548110610b1857fe5b906000526020600020016000915054906101000a900473ffffffffffffffffffffffffffffffffffffffff1681565b60606002805480602002602001604051908101604052809291908181526020018280548015610bcb57602002820191906000526020600020905b8160009054906101000a900473ffffffffffffffffffffffffffffffffffffffff1673ffffffffffffffffffffffffffffffffffffffff1681526020019060010190808311610b81575b5050505050905090565b60606000805480602002602001604051908101604052809291908181526020018280548015610c5957602002820191906000526020600020905b8160009054906101000a900473ffffffffffffffffffffffffffffffffffffffff1673ffffffffffffffffffffffffffffffffffffffff1681526020019060010190808311610c0f575b5050505050905090565b60606001805480602002602001604051908101604052809291908181526020018280548015610ce757602002820191906000526020600020905b8160009054906101000a900473ffffffffffffffffffffffffffffffffffffffff1673ffffffffffffffffffffffffffffffffffffffff1681526020019060010190808311610c9d575b5050505050905090565b60028181548110610cfe57fe5b906000526020600020016000915054906101000a900473ffffffffffffffffffffffffffffffffffffffff168156fea265627a7a7231582039cf99c445fca20446261fdbe6bbb54d266de4fe66bfd56b9538c6c5ade4fd0964736f6c63430005100032",
  "source": "pragma solidity ^0.5.10;\n\ncontract Claim {\n    address[] public over18;\n    address[] public bcnBorn;\n    address[] public espluguesResident;\n    address[] public informaticsEngineer;\n\n    // Making a claim\n    function claim(uint claimId, string memory claimName, string memory claimValidity, string memory claimFormat) public returns (uint) {\n    require(claimId >= 0 && claimId <= 4);\n    require(keccak256(bytes(claimValidity)) != keccak256(bytes(\"0\")));\n    if (keccak256(bytes(claimName)) == keccak256(bytes(\"over-18\"))) {\n        over18.push(msg.sender);\n    }\n    else if (keccak256(bytes(claimName)) == keccak256(bytes(\"birth-place\"))) {\n        if (keccak256(bytes(claimFormat)) == keccak256(bytes(\"barcelona\"))) {\n            bcnBorn.push(msg.sender);\n        }\n    }\n    else if (keccak256(bytes(claimName)) == keccak256(bytes(\"residence-place\"))) {\n        if (keccak256(bytes(claimFormat)) == keccak256(bytes(\"esplugues\"))) {\n            espluguesResident.push(msg.sender);\n        }\n    }\n    else if (keccak256(bytes(claimName)) == keccak256(bytes(\"university-degree\"))) {\n        if (keccak256(bytes(claimFormat)) == keccak256(bytes(\"Informatics Engineering\"))) {\n            informaticsEngineer.push(msg.sender);\n        }\n    }\n\n    return claimId;\n    }\n    \n    // Retrieving the Claimers\n    function getOver18Claimers() public view returns (address[] memory) {\n    return over18;\n    }\n\n    // Retrieving the Claimers\n    function getBcnBornClaimers() public view returns (address[] memory) {\n    return bcnBorn;\n    }\n\n    // Retrieving the Claimers\n    function getEspluguesResidentClaimers() public view returns (address[] memory) {\n    return espluguesResident;\n    }\n\n    // Retrieving the Claimers\n    function getInformaticsEngineerClaimers() public view returns (address[] memory) {\n    return informaticsEngineer;\n    }\n}",
  "sourcePath": "/home/abernalmac/Documents/pti/contracts/Claim.sol",
  "compiler": {
    "name": "solc",
    "version": "0.5.16+commit.9c3226ce.Emscripten.clang"
  },
  "schemaVersion": "3.4.3",
  "updatedAt": "2021-11-10T17:46:24.007Z",
  "networkType": "ethereum",
  "devdoc": {
    "methods": {}
  },
  "userdoc": {
    "methods": {}
  }
}