{
  "contractName": "Over18Claim",
  "abi": [
    {
      "inputs": [],
      "payable": false,
      "stateMutability": "nonpayable",
      "type": "constructor"
    },
    {
      "constant": true,
      "inputs": [
        {
          "internalType": "uint256",
          "name": "",
          "type": "uint256"
        }
      ],
      "name": "claims",
      "outputs": [
        {
          "internalType": "uint256",
          "name": "id",
          "type": "uint256"
        },
        {
          "internalType": "string",
          "name": "claimName",
          "type": "string"
        },
        {
          "internalType": "uint256",
          "name": "validity",
          "type": "uint256"
        },
        {
          "internalType": "string",
          "name": "proof_format",
          "type": "string"
        }
      ],
      "payable": false,
      "stateMutability": "view",
      "type": "function"
    },
    {
      "constant": true,
      "inputs": [],
      "name": "owner",
      "outputs": [
        {
          "internalType": "address",
          "name": "",
          "type": "address"
        }
      ],
      "payable": false,
      "stateMutability": "view",
      "type": "function"
    },
    {
      "constant": false,
      "inputs": [],
      "name": "addClaim",
      "outputs": [],
      "payable": false,
      "stateMutability": "nonpayable",
      "type": "function"
    }
  ],
  "bytecode": "0x60806040526000805534801561001457600080fd5b5061002361002860201b60201c565b6101f0565b600080815460010191905081905550604051806080016040528060005481526020016040518060400160405280600681526020017f6f7665723138000000000000000000000000000000000000000000000000000081525081526020017fffffffffffffffffffffffffffffffffffffffffffffffffffffffffffffffff81526020016040518060400160405280600581526020017f6261736963000000000000000000000000000000000000000000000000000000815250815250600160008054815260200190815260200160002060008201518160000155602082015181600101908051906020019061011e92919061014b565b5060408201518160020155606082015181600301908051906020019061014592919061014b565b50905050565b828054600181600116156101000203166002900490600052602060002090601f016020900481019282601f1061018c57805160ff19168380011785556101ba565b828001600101855582156101ba579182015b828111156101b957825182559160200191906001019061019e565b5b5090506101c791906101cb565b5090565b6101ed91905b808211156101e95760008160009055506001016101d1565b5090565b90565b61053e806101ff6000396000f3fe608060405234801561001057600080fd5b50600436106100415760003560e01c806383113664146100465780638da5cb5b14610050578063a888c2cd1461009a575b600080fd5b61004e6101bb565b005b6100586102de565b604051808273ffffffffffffffffffffffffffffffffffffffff1673ffffffffffffffffffffffffffffffffffffffff16815260200191505060405180910390f35b6100c6600480360360208110156100b057600080fd5b8101908080359060200190929190505050610304565b604051808581526020018060200184815260200180602001838103835286818151815260200191508051906020019080838360005b838110156101165780820151818401526020810190506100fb565b50505050905090810190601f1680156101435780820380516001836020036101000a031916815260200191505b50838103825284818151815260200191508051906020019080838360005b8381101561017c578082015181840152602081019050610161565b50505050905090810190601f1680156101a95780820380516001836020036101000a031916815260200191505b50965050505050505060405180910390f35b600080815460010191905081905550604051806080016040528060005481526020016040518060400160405280600681526020017f6f7665723138000000000000000000000000000000000000000000000000000081525081526020017fffffffffffffffffffffffffffffffffffffffffffffffffffffffffffffffff81526020016040518060400160405280600581526020017f626173696300000000000000000000000000000000000000000000000000000081525081525060016000805481526020019081526020016000206000820151816000015560208201518160010190805190602001906102b1929190610464565b506040820151816002015560608201518160030190805190602001906102d8929190610464565b50905050565b600260009054906101000a900473ffffffffffffffffffffffffffffffffffffffff1681565b6001602052806000526040600020600091509050806000015490806001018054600181600116156101000203166002900480601f0160208091040260200160405190810160405280929190818152602001828054600181600116156101000203166002900480156103b65780601f1061038b576101008083540402835291602001916103b6565b820191906000526020600020905b81548152906001019060200180831161039957829003601f168201915b505050505090806002015490806003018054600181600116156101000203166002900480601f01602080910402602001604051908101604052809291908181526020018280546001816001161561010002031660029004801561045a5780601f1061042f5761010080835404028352916020019161045a565b820191906000526020600020905b81548152906001019060200180831161043d57829003601f168201915b5050505050905084565b828054600181600116156101000203166002900490600052602060002090601f016020900481019282601f106104a557805160ff19168380011785556104d3565b828001600101855582156104d3579182015b828111156104d25782518255916020019190600101906104b7565b5b5090506104e091906104e4565b5090565b61050691905b808211156105025760008160009055506001016104ea565b5090565b9056fea265627a7a72315820b7b6431b1bbab3d6a0d3566dc85cd50df598c67cbecd0105f1952ac0ebbb32fa64736f6c63430005100032",
  "source": "// SPDX-License-Identifier: MIT\npragma solidity >=0.4.22 <0.9.0;\n\ncontract Over18Claim {\n    uint claimCount = 0;\n    uint256 constant MAX_INT = 2**256 - 1;\n    struct Claim {\n        uint id;            //not used to define a claim, just for development purposes\n        string claimName;\n        uint validity;\n        string proof_format;\n    }\n\n    mapping(uint => Claim) public claims;\n\n    address public owner;\n\n    function addClaim() public {\n        ++claimCount;\n        claims[claimCount] = Claim(claimCount, \"over18\", MAX_INT, \"basic\");\n    }\n\n    constructor() public {\n        addClaim();\n    }\n}\n",
  "sourcePath": "/home/abernalmac/pti/project/ssi/contracts/Over18Claim.sol",
  "compiler": {
    "name": "solc",
    "version": "0.5.16+commit.9c3226ce.Emscripten.clang"
  },
  "schemaVersion": "3.4.3",
  "updatedAt": "2021-10-17T15:06:08.661Z",
  "networkType": "ethereum",
  "devdoc": {
    "methods": {}
  },
  "userdoc": {
    "methods": {}
  }
}